:020000040800F2
:1000000000280020E11000085D0E0008630E0008C3
:10001000690E00086F0E0008750E00080000000051
:100020000000000000000000000000007B0E00083F
:10003000870E000800000000930E00089F0E0008C5
:1000400029110008291100082911000829110008A8
:100050002911000829110008291100082911000898
:100060002911000829110008291100082911000888
:100070002911000829110008291100082911000878
:100080002911000829110008291100082911000868
:100090002911000829110008291100082911000858
:1000A0002911000829110008291100082911000848
:1000B000AD0E0008291100080000000029110008F9
:1000C00029110008000000000000000029110008AC
:1000D000000000002911000829110008000000009C
:1000E000291100082911000829110008000000004A
:1000F0000000000000000000000000000000000000
:0C01000000000000000000005FF808F1A3
:10010C0010B5054C237833B9044B13B10448AFF345
:10011C0000800123237010BD1C0000200000000093
:10012C007827000808B5034B1BB103490348AFF30C
:10013C00008008BD00000000200000207827000887
:10014C0080B400AF0E4B01221A700E4B03221A70B2
:10015C000D4B1B781A46642302FB03F30B4A136006
:10016C00084B06225A700A4B1B781A46642302FB72
:10017C0003F3064A536000BFBD4680BC704700BF06
:10018C00380000203C0000204800002040000020E7
:10019C004A00002080B500AF064B03221A70064BB4
:1001AC0001221A70054B02221A70FFF7C9FF00BF1B
:1001BC0080BD00BF48000020490000204A000020FC
:1001CC0080B400AF094B00221A70084B00225A7001
:1001DC00064B00229A70064B01221A60054B142222
:1001EC001A6000BFBD4680BC704700BF50000020A5
:1001FC00540000205800002080B483B000AF786019
:10020C007B681B78622B04D87B681B780133DAB2CD
:10021C0000E000227B681A7000BF0C37BD4680BC22
:10022C007047000080B500AF0F4B1B78013B032BD0
:10023C0017D801A252F823F06D02000855020008ED
:10024C005D020008650200080848FFF7D5FF08E0CA
:10025C000748FFF7D1FF04E00648FFF7CDFF00E0A9
:10026C0000BF00BF80BD00BF380000204B00002045
:10027C004C0000204D00002080B500AFFF21002075
:10028C0000F08EFEFF21012000F08AFE1C4B1B7833
:10029C00013B032B31D801A252F823F0B90200081C
:1002AC00CF020008E5020008FB020008144B0222F2
:1002BC001A70144B32221A60134B1A78134B1A70A3
:1002CC001BE00F4B03221A700E4B32221A60104B9C
:1002DC001A78104B1A7010E0094B04221A70094B53
:1002EC0032221A600C4B1A780C4B1A7005E0044B36
:1002FC0001221A70FFF724FF00BF00BF80BD00BFB2
:10030C003800002054000020480000204B00002042
:10031C00490000204C0000204A0000204D00002025
:10032C0080B400AF114B1B78013B032B1AD801A2F0
:10033C0052F823F06F030008510300085B03000818
:10034C00650300080A4B1A780A4B1A700AE00A4B2C
:10035C001A780A4B1A7005E0094B1A78094B1A7077
:10036C0000E000BF00BFBD4680BC704738000020D5
:10037C004B000020480000204C00002049000020C9
:10038C004D0000204A00002080B582B000AF78609C
:10039C000B467B80B7F90230264AD35C022B32D055
:1003AC00022B43DC002B02D0012B10D03EE0B7F91E
:1003BC000230184600F0A6F90346002B31D0B7F9ED
:1003CC0002301C4A0121D1547B68984729E0B7F9C7
:1003DC000230184600F096F90346002B05D1B7F908
:1003EC000230144A0021D1541DE0B7F902301846EE
:1003FC0000F0A6F90346002B15D0B7F902300D4AD0
:10040C000221D1540FE0B7F90230184600F098F9E8
:10041C000346002B09D1B7F90230064A0021D1540A
:10042C0003E000BF02E000BF00E000BF00BF0837E0
:10043C00BD4680BD5000002080B500AF00210248B1
:10044C00FFF7A2FF00BF80BD2D03000880B500AFF1
:10045C0001210D48FFF798FF0C4B5B78022B0ED156
:10046C000B4B1B68013B0A4A1360094B1B68002BA2
:10047C0008DC074B14221A60FFF7D4FE02E0044B91
:10048C0014221A6000BF80BD310200085000002009
:10049C005800002080B500AF02210248FFF774FF1E
:1004AC0000BF80BD8502000880B582B000AF034656
:1004BC00FB80B7F906303B4A52F82320013A394900
:1004CC0041F82320B7F90630374AD35C062B42D0CB
:1004DC00062B63DC032B02D0052B1ED05EE0B7F994
:1004EC0006300321184600F05BFDB7F906302D4AA3
:1004FC0052F82330002B4CDC2C4B1B781946B7F9E7
:10050C000630642201FB02F2264941F82320B7F998
:10051C000630254A0621D1543BE0B7F906300521B7
:10052C00184600F03DFDB7F906301E4A52F823304C
:10053C00002B30DC1E4B1B781946B7F906306422B1
:10054C0001FB02F2174941F82320B7F90630164A8D
:10055C000321D1541FE0B7F906300621184600F0EC
:10056C001FFDB7F906300F4A52F82330002B14DC6C
:10057C00104B1B781946B7F90630642201FB02F2C6
:10058C00084941F82320B7F90630074A0521D15410
:10059C0003E000BF02E000BF00E000BF00BF08376F
:1005AC00BD4680BD400000203C0000204A000020D9
:1005BC00480000204900002080B500AF264B1B7876
:1005CC00013B032B46D801A252F823F0E9050008A1
:1005DC00F705000817060008370600080020FFF78B
:1005EC0063FF0120FFF760FF34E01C4B1B68013BED
:1005FC001A4A1360194B1B68002B26DC174B32224E
:10060C001A60032000F01AFD1FE0144B1B68013B1D
:10061C00124A1360114B1B68002B18DC0F4B322253
:10062C001A60052000F00AFD11E00C4B1B68013B21
:10063C000A4A1360094B1B68002B0ADC074B322259
:10064C001A60062000F0FAFC03E000BF02E000BFD5
:10065C0000E000BF00BF80BD380000205400002027
:10066C0080B483B000AF0023FB8021E0B7F90620F3
:10067C00144B01219954B7F906301249895C124A7E
:10068C00D154B7F906201049C95C104B9954B7F9ED
:10069C0006300F4A0021D154B7F906300D4A6421B7
:1006AC0022F81310B7F906309BB201339BB2FB80D2
:1006BC00B7F90630022BD9DD00BF00BF0C37BD46A1
:1006CC0080BC704764000020600000205C000020AB
:1006DC00680000206C00002080B483B000AF03469B
:1006EC00FB80B7F90630002B05DBB7F90630022B7F
:1006FC0001DC012300E00023DBB218460C37BD46B9
:10070C0080BC704780B582B000AF0346FB80B7F960
:10071C0006301846FFF7E0FF0346002B01D1FF23FC
:10072C0008E0B7F90630054AD35C002B0CBF012357
:10073C000023DBB218460837BD4680BD5C000020A4
:10074C0080B582B000AF0346FB80B7F9063018467F
:10075C00FFF7C2FF0346002B01D1FF2303E0B7F9DB
:10076C000630034AD35C18460837BD4680BD00BF2F
:10077C006800002090B583B000AF0346FB80B7F94A
:10078C0006301846FFF7A8FF0346002B59D0B7F9DF
:10079C000620B7F906302D49895C2D4AD154B7F99A
:1007AC0006302C4A52F82320B7F906302A4931F981
:1007BC0013309BB2B7F906401946104600F09CFF67
:1007CC0003461A46214B1A55B7F90630204AD25C1B
:1007DC00B7F906301D49CB5C9A4233D1B7F90620E4
:1007EC00B7F906301949895C1C4AD154B7F906305F
:1007FC001A4AD35C002B18D1B7F90630184A32F9D3
:10080C00132092B2013A92B211B2154A22F8131087
:10081C00B7F90630124A32F91330002B12DCB7F953
:10082C000630104A0121D1540CE0B7F906300C4ABD
:10083C00642122F81310B7F906300A4A0021D1546A
:10084C0000E000BF0C37BD4690BD00BF600000202B
:10085C006400002000000020902700085C000020AD
:10086C006C0000206800002080B582B000AF00232F
:10087C00FB8015E0B7F906300F4A0021D154B7F9C7
:10088C0006300E4A32F913309BB2012219460C483D
:10089C0000F049FFB7F906309BB201339BB2FB80E5
:1008AC00B7F90630042BE5DD064B04221A8000BF95
:1008BC000837BD4680BD00BF740000209827000893
:1008CC00000C01407A00002080B483B000AF3C4B98
:1008DC001B78013B032B30D801A252F823F000BF48
:1008EC00FD080008230900082F0900083B0900082F
:1008FC00344B1B68344A82FB03125211DB17D31A98
:10090C00FB80304B5B68304A82FB03125211DB17C1
:10091C00D31ABB8011E02D4B1B78BB80BB88FB80AE
:10092C000BE02B4B1B78BB80BB88FB8005E0294B75
:10093C001B78BB80BB88FB8000BFB7F90630264A0A
:10094C0082FB03129210DB17D31A1BB2DAB2234BC1
:10095C001A70B7F90620204B83FB02139910D3179A
:10096C00C91A0B469B000B445B00D31A1BB2DAB2BC
:10097C001A4B5A70B7F90430174A82FB03129210C3
:10098C00DB17D31A1BB2DAB2144B9A70B7F90420E6
:10099C00114B83FB02139910D317C91A0B469B00FA
:1009AC000B445B00D31A1BB2DAB20C4BDA70044B5B
:1009BC001A780A4B1A7100BF0C37BD4680BC7047C1
:1009CC0038000020400000201F85EB514B00002018
:1009DC004C0000204D000020676666667400002005
:1009EC0080B584B000AF0346FB80B7F90630314ABE
:1009FC00D35CFB73FB7B092B58D8FB7B2E4AD35C57
:100A0C00BB73BB7B03F00103DBB21A464FF480616E
:100A1C002A4800F088FEBB7B5B08BB73BB7B03F0F2
:100A2C000103DBB21A464FF40071244800F07BFE40
:100A3C00BB7B5B08BB73BB7B03F00103DBB21A46C9
:100A4C004FF480711D4800F06EFEBB7B5B08BB73DE
:100A5C00BB7B03F00103DBB21A468021174800F080
:100A6C0062FEBB7B5B08BB73BB7B03F00103DBB299
:100A7C001A464021114800F056FEBB7B5B08BB7345
:100A8C00BB7B03F00103DBB21A4620210B4800F0BC
:100A9C004AFEBB7B5B08BB73BB7B03F00103DBB281
:100AAC001A461021054800F03EFE00E000BF10374A
:100ABC00BD4680BD74000020A4270008000C014036
:100ACC0080B500AF1A4BB3F900301A46194B33F905
:100ADC0012309BB201221946174800F024FE144B29
:100AEC00B3F900309BB201339BB21AB2104B1A808F
:100AFC000F4BB3F90030042B02DD0D4B00221A8092
:100B0C00FFF7E2FE0A4BB3F900301846FFF768FF17
:100B1C00074BB3F900301A46064B33F912309BB22F
:100B2C0000221946044800F0FEFD00BF80BD00BF46
:100B3C007A00002098270008000C014080B500AF17
:100B4C0000F0EEFA00F042F800F0C8F800F07AF885
:100B5C001D4801F047FAFFF783FDFFF731FBFFF764
:100B6C0083FEFFF717FB00210A2000F0A9F90121F1
:100B7C000A2000F0A5F9002000F0C6F90346002B6E
:100B8C0014D000210A2000F09BF90020FFF7F2FDA1
:100B9C000120FFF7EFFD0220FFF7ECFDFFF74CFC07
:100BAC00FFF754FCFFF776FCFFF706FD012000F081
:100BBC00ABF90346002BDED001210A2000F080F9AE
:100BCC00FFF77EFFD7E700BF7C00002080B590B018
:100BDC0000AF07F1180328220021184601F0BEFDD2
:100BEC003B1D00221A605A609A60DA601A61022377
:100BFC00BB610123BB621023FB6200237B6307F103
:100C0C001803184600F0C0FD0346002B01D000F07D
:100C1C00D3F80F237B600023BB600023FB60002311
:100C2C003B6100237B613B1D0021184601F02EF82F
:100C3C000346002B01D000F0BFF800BF4037BD4683
:100C4C0080BD000080B586B000AF07F1080300221C
:100C5C001A605A609A60DA603B4600221A605A6049
:100C6C001D4B4FF080421A601B4B41F63F725A608D
:100C7C00194B00229A60184B0922DA60164B00229D
:100C8C001A61154B00229A61134801F05BF9034677
:100C9C00002B01D000F090F84FF48053BB6007F1AB
:100CAC00080319460C4801F0F1FA0346002B01D059
:100CBC0000F082F800233B6000237B603B46194622
:100CCC00054801F0BDFC0346002B01D000F074F880
:100CDC0000BF1837BD4680BD7C00002080B586B0B3
:100CEC0000AF07F1080300221A605A609A60DA60BC
:100CFC00294B9B69284A43F004039361264B9B695B
:100D0C0003F004037B607B68234B9B69224A43F00E
:100D1C0008039361204B9B6903F008033B603B681D
:100D2C0000224FF47E611D4800F0FDFC002244F2CD
:100D3C00FF711B4800F0F7FC4FF47E63BB6001238E
:100D4C00FB6000233B6102237B6107F1080319461A
:100D5C00124800F055FB44F2FF73BB600123FB60AB
:100D6C0000233B6102237B6107F1080319460C4801
:100D7C0000F046FB4FF46053BB600023FB60012383
:100D8C003B6107F108031946054800F039FB00BF29
:100D9C001837BD4680BD00BF00100240000801405E
:100DAC00000C014080B582B000AF786000F0EEF826
:100DBC0000BF0837BD4680BD80B400AF72B600BF1F
:100DCC00FEE7000080B483B000AF0E4B9B690D4A68
:100DDC0043F0010393610B4B9B6903F001037B60B0
:100DEC007B68084BDB69074A43F08053D361054BA2
:100DFC00DB6903F080533B603B6800BF0C37BD469A
:100E0C0080BC70470010024080B584B000AF7860A1
:100E1C007B681B68B3F1804F13D10C4BDB690B4A19
:100E2C0043F00103D361094BDB6903F00103FB6061
:100E3C00FB68002200211C2000F0ABFA1C2000F003
:100E4C00C4FA00BF1037BD4680BD00BF0010024081
:100E5C0080B400AFFEE780B400AFFEE780B400AF13
:100E6C00FEE780B400AFFEE780B400AFFEE780B4CD
:100E7C0000AF00BFBD4680BC704780B400AF00BF60
:100E8C00BD4680BC704780B400AF00BFBD4680BC7F
:100E9C00704780B500AF00F089F900BF80BD00003D
:100EAC0080B500AF024801F0E9F800BF80BD00BF7B
:100EBC007C00002080B400AF00BFBD4680BC7047F2
:100ECC0080B483B000AF78600B467B807B680B4AA4
:100EDC0082FB03129210DB17D21AB7F9023011B24F
:100EEC00074A22F81310B7F90230064A002122F8FB
:100EFC00131000BF0C37BD4680BC70476766666632
:100F0C00C4000020C800002080B483B000AF0346AA
:100F1C00FB80B7F90630044A32F9133018460C3707
:100F2C00BD4680BC704700BFC800002080B483B0B1
:100F3C0000AF0346FB80B7F90630124A32F9133082
:100F4C00002B19DDB7F906300E4A32F9132092B294
:100F5C00013A92B211B20B4A22F81310B7F90630CB
:100F6C00084A32F91330002B07DCB7F90630064A71
:100F7C00012122F8131000E000BF0C37BD4680BCE5
:100F8C00704700BFC4000020C800002080B500AF2F
:100F9C000020FFF7CBFF0120FFF7C8FF00BF80BD8B
:100FAC0080B582B000AF03460A46FB8013467B71C6
:100FBC00204B1868B7F9062013465B001344023324
:100FCC001D4A32F9133099B27B7903F00103DBB27D
:100FDC001A4600F0A8FB7B795B087B71154B1868EF
:100FEC00B7F9062013465B0013440133124A32F959
:100FFC00133099B27B7903F00103DBB21A4600F08F
:10100C0092FB7B795B087B710A4B1868B7F9062059
:10101C0013465B001344084A32F9133099B27B79BA
:10102C0003F00103DBB21A4600F07DFB00BF08376A
:10103C00BD4680BD10000020C027000880B582B0DE
:10104C0000AF0346FB71FB79062B2AD0062B3BDC49
:10105C00032B02D0052B12D036E01D4B1B6840220F
:10106C0092B21146184600F076FB194B1B684FF4F0
:10107C00007292B21146184600F06DFB24E0144B3E
:10108C001B68802292B21146184600F064FB104B8C
:10109C001B684FF4806292B21146184600F05BFB5D
:1010AC0012E00B4B1B684FF4807292B2114618463B
:1010BC0000F051FB064B1B684FF4006292B21146D4
:1010CC00184600F048FB00BF00BF0837BD4680BD86
:1010DC0010000020FFF7EEFE0B480C490C4A0023D1
:1010EC0002E0D458C4500433C4188C42F9D3094AD2
:1010FC00094C002301E013600432A242FBD301F03F
:10110C0009FBFFF71BFD7047000000201C000020AE
:10111C00E82700081C000020D0000020FEE700009B
:10112C0080B500AF084B1B68074A43F010031360EF
:10113C00032000F023F90F2000F008F8FFF742FE1F
:10114C000023184680BD00BF0020024080B582B04D
:10115C0000AF7860124B1A68124B1B7819464FF48B
:10116C007A73B3FBF1F3B2FBF3F3184600F03BF9DF
:10117C000346002B01D001230EE07B680F2B0AD80D
:10118C00002279684FF0FF3000F003F9064A7B68C3
:10119C001360002300E0012318460837BD4680BDCC
:1011AC000C000020180000201400002080B400AFB8
:1011BC00054B1B781A46054B1B681344034A1360F6
:1011CC0000BFBD4680BC704718000020CC0000203A
:1011DC0080B400AF024B1B681846BD4680BC7047FC
:1011EC00CC00002080B485B000AF78607B6803F041
:1011FC000703FB600C4BDB68BB60BA684FF6FF0360
:10120C001340BB60FB681A02BB68134343F0BF6317
:10121C0043F40033BB60044ABB68D36000BF14378F
:10122C00BD4680BC704700BF00ED00E080B400AF4D
:10123C00044BDB681B0A03F007031846BD4680BC51
:10124C00704700BF00ED00E080B483B000AF0346F0
:10125C00FB7197F90730002B0BDBFB7903F01F02B6
:10126C00064997F907305B09012000FA02F241F8B0
:10127C00232000BF0C37BD4680BC704700E100E066
:10128C0080B483B000AF03463960FB7197F9073027
:10129C00002B0ADB3B68DAB20C4997F907301201D4
:1012AC00D2B20B4483F800230AE03B68DAB2084957
:1012BC00FB7903F00F03043B1201D2B20B441A76F4
:1012CC0000BF0C37BD4680BC704700BF00E100E09A
:1012DC0000ED00E080B489B000AFF860B9607A60CE
:1012EC00FB6803F00703FB61FB69C3F10703042BE5
:1012FC0028BF0423BB61FB690433062B02D9FB69AD
:10130C00033B00E000237B614FF0FF32BB6902FA24
:10131C0003F3DA43BB681A407B699A404FF0FF3104
:10132C007B6901FA03F3D9437B680B4013431846DE
:10133C002437BD4680BC704780B582B000AF786062
:10134C007B68013BB3F1807F01D301230FE00A4A94
:10135C007B68013B53600F214FF0FF30FFF790FF8C
:10136C00054B00229A60044B07221A600023184692
:10137C000837BD4680BD00BF10E000E080B582B0EC
:10138C0000AF78607868FFF72DFF00BF0837BD46C7
:10139C0080BD80B586B000AF0346B9607A60FB7340
:1013AC0000237B61FFF742FF78617A68B96878693E
:1013BC00FFF790FF024697F90F3011461846FFF7DA
:1013CC005FFF00BF1837BD4680BD80B582B000AF4F
:1013DC000346FB7197F907301846FFF735FF00BF3E
:1013EC000837BD4680BD80B582B000AF78607868A4
:1013FC00FFF7A2FF034618460837BD4680BD000024
:10140C0080B48BB000AF7860396000237B6200231E
:10141C003B6261E101227B6A02FA03F3FB613B68E8
:10142C001B68FA691340BB61BA69FB699A4240F0C8
:10143C0050813B685B68974A93425ED0954A9342D1
:10144C0075D8954A934258D0934A93426FD8934A91
:10145C00934252D0914A934269D8914A93424CD0CC
:10146C008F4A934263D88F4A934246D08D4A934217
:10147C005DD8122B2AD8122B59D801A252F823F07E
:10148C0007150008E1140008F314000835150008CE
:10149C003B1500083B1500083B1500083B150008E0
:1014AC003B1500083B1500083B1500083B150008D0
:1014BC003B1500083B1500083B1500083B150008C0
:1014CC003B150008E9140008FD140008764A934205
:1014DC0013D02CE03B68DB683B6229E03B68DB689F
:1014EC0004333B6224E03B68DB6808333B621FE05B
:1014FC003B68DB680C333B621AE03B689B68002B53
:10150C0002D104233B6213E03B689B68012B05D19D
:10151C0008233B627B68FA691A6109E008233B6285
:10152C007B68FA695A6103E000233B6200E000BF6C
:10153C00BB69FF2B01D87B6801E07B6804337B61BE
:10154C00BB69FF2B02D87B6A9B0002E07B6A083BDD
:10155C009B003B617B691A680F213B6901FA03F31D
:10156C00DB431A40396A3B6901FA03F31A437B697E
:10157C001A603B685B6803F08053002B00F0A98075
:10158C004A4B9B69494A43F001039361474B9B6962
:10159C0003F00103BB60BB68454A7B6A9B080233BE
:1015AC0052F82330FB607B6A03F003039B000F228D
:1015BC0002FA03F3DB43FA681340FB607B683D4A95
:1015CC0093420DD07B683C4A934207D07B683B4AE0
:1015DC00934201D1022304E0032302E0012300E043
:1015EC0000237A6A02F0030292009340FA681343D4
:1015FC00FB602F497B6A9B080233FA6841F8232071
:10160C003B685B6803F48013002B06D02C4B9A6864
:10161C002B49BB6913438B6006E0294B9A68BB6965
:10162C00DB43274913408B603B685B6803F4001372
:10163C00002B06D0224BDA682149BB691343CB60DF
:10164C0006E01F4BDA68BB69DB431D491340CB60D6
:10165C003B685B6803F40033002B06D0184B5A68C8
:10166C001749BB6913434B6006E0154B5A68BB69BD
:10167C00DB43134913404B603B685B6803F48033D6
:10168C00002B1FD00E4B1A680D49BB6913430B601E
:10169C001FE000BF000032100000311000002210CB
:1016AC000000211000001210000011100010024068
:1016BC000000014000080140000C014000100140F6
:1016CC00000401400B4B1A68BB69DB43094913400A
:1016DC000B607B6A01337B623B681A687B6A22FA77
:1016EC0003F3002B7FF496AE00BF00BF2C37BD4632
:1016FC0080BC70470004014080B485B000AF7860B6
:10170C000B467B807B689A687B881340002B02D049
:10171C000123FB7301E00023FB73FB7B184614379A
:10172C00BD4680BC704780B483B000AF78600B4678
:10173C007B8013467B707B78002B03D07A887B6888
:10174C001A6103E07B881A047B681A6100BF0C37AE
:10175C00BD4680BC704780B485B000AF78600B4646
:10176C007B807B68DB68FB607A88FB6813401A041B
:10177C00FB68D9437B880B401A437B681A6100BF16
:10178C001437BD4680BC704780B586B000AF78601A
:10179C007B68002B01D1012372E27B681B6803F08C
:1017AC000103002B00F08780924B5B6803F00C0365
:1017BC00042B0CD08F4B5B6803F00C03082B12D15D
:1017CC008C4B5B6803F48033B3F5803F0BD1894BB2
:1017DC001B6803F40033002B6CD07B685B68002B18
:1017EC0068D101234CE27B685B68B3F5803F06D17E
:1017FC00804B1B687F4A43F4803313602EE07B6878
:10180C005B68002B0CD17B4B1B687A4A23F480332A
:10181C001360784B1B68774A23F4802313601DE018
:10182C007B685B68B3F5A02F0CD1724B1B68714AB7
:10183C0043F4802313606F4B1B686E4A43F4803370
:10184C0013600BE06B4B1B686A4A23F48033136004
:10185C00684B1B68674A23F4802313607B685B68C2
:10186C00002B13D0FFF7B4FC386108E0FFF7B0FC95
:10187C0002463B69D31A642B01D9032300E25D4B6A
:10188C001B6803F40033002BF0D014E0FFF7A0FC2E
:10189C00386108E0FFF79CFC02463B69D31A642BC5
:1018AC0001D90323ECE1534B1B6803F40033002BE9
:1018BC00F0D100E000BF7B681B6803F00203002B33
:1018CC0063D04C4B5B6803F00C03002B0BD0494BE3
:1018DC005B6803F00C03082B1CD1464B5B6803F4CC
:1018EC008033002B16D1434B1B6803F00203002BF3
:1018FC0005D07B681B69012B01D00123C0E13D4B56
:10190C001B6823F0F8027B685B69DB0039491343E1
:10191C000B603AE07B681B69002B20D0364B012210
:10192C001A60FFF755FC386108E0FFF751FC0246DE
:10193C003B69D31A022B01D90323A1E12D4B1B6860
:10194C0003F00203002BF0D02A4B1B6823F0F802A3
:10195C007B685B69DB00274913430B6015E0264B62
:10196C0000221A60FFF734FC386108E0FFF730FC06
:10197C0002463B69D31A022B01D9032380E11D4B8C
:10198C001B6803F00203002BF0D17B681B6803F08B
:10199C000803002B3AD07B689B69002B19D0174B9E
:1019AC0001221A60FFF714FC386108E0FFF710FC05
:1019BC0002463B69D31A022B01D9032360E10D4B7C
:1019CC005B6A03F00203002BF0D0012000F09CFABC
:1019DC001CE00A4B00221A60FFF7FAFB38610FE09B
:1019EC00FFF7F6FB02463B69D31A022B08D90323F7
:1019FC0046E100BF00100240000042428004424217
:101A0C00924B5B6A03F00203002BE9D17B681B68E5
:101A1C0003F00403002B00F0A6800023FB758B4B16
:101A2C00DB6903F08053002B0DD1884BDB69874AAF
:101A3C0043F08053D361854BDB6903F08053BB606B
:101A4C00BB680123FB75824B1B6803F48073002B6E
:101A5C0018D17F4B1B687E4A43F480731360FFF7E9
:101A6C00B7FB386108E0FFF7B3FB02463B69D31ABA
:101A7C00642B01D9032303E1754B1B6803F48073BA
:101A8C00002BF0D07B68DB68012B06D16F4B1B6AF7
:101A9C006E4A43F0010313622DE07B68DB68002B78
:101AAC000CD16A4B1B6A694A23F001031362674B22
:101ABC001B6A664A23F0040313621CE07B68DB6834
:101ACC00052B0CD1614B1B6A604A43F00403136273
:101ADC005E4B1B6A5D4A43F0010313620BE05B4BE8
:101AEC001B6A5A4A23F001031362584B1B6A574A6C
:101AFC0023F0040313627B68DB68002B15D0FFF71F
:101B0C0067FB38610AE0FFF763FB02463B69D31AB7
:101B1C0041F28832934201D90323B1E04B4B1B6A4B
:101B2C0003F00203002BEED014E0FFF751FB3861F9
:101B3C000AE0FFF74DFB02463B69D31A41F28832AB
:101B4C00934201D903239BE0404B1B6A03F0020331
:101B5C00002BEED1FB7D012B05D13C4BDB693B4AC5
:101B6C0023F08053D3617B68DB69002B00F0878006
:101B7C00364B5B6803F00C03082B61D07B68DB6988
:101B8C00022B46D1334B00221A60FFF721FB386140
:101B9C0008E0FFF71DFB02463B69D31A022B01D963
:101BAC0003236DE0294B1B6803F00073002BF0D16D
:101BBC007B681B6AB3F5803F08D1244B5B6823F428
:101BCC0000327B689B68214913434B601F4B5B6859
:101BDC0023F474127B68196A7B685B6A0B431B499C
:101BEC0013434B601B4B01221A60FFF7F1FA38616B
:101BFC0008E0FFF7EDFA02463B69D31A022B01D934
:101C0C0003233DE0114B1B6803F00073002BF0D055
:101C1C0035E0104B00221A60FFF7DAFA386108E061
:101C2C00FFF7D6FA02463B69D31A022B01D90323DC
:101C3C0026E0064B1B6803F00073002BF0D11EE06E
:101C4C007B68DB69012B07D1012319E000100240EE
:101C5C0000700040600042420B4B5B68FB60FB680D
:101C6C0003F480327B681B6A9A4206D1FB6803F44A
:101C7C0070127B685B6A9A4201D0012300E000235A
:101C8C0018461837BD4680BD0010024080B584B0A0
:101C9C0000AF786039607B68002B01D10123D0E064
:101CAC006A4B1B6803F007033A689A4210D9674BDA
:101CBC001B6823F0070265493B6813430B60634BB9
:101CCC001B6803F007033A689A4201D00123B8E07D
:101CDC007B681B6803F00203002B20D07B681B6819
:101CEC0003F00403002B05D0594B5B68584A43F4AE
:101CFC00E06353607B681B6803F00803002B05D07E
:101D0C00534B5B68524A43F460535360504B5B68CF
:101D1C0023F0F0027B689B684D4913434B607B6852
:101D2C001B6803F00103002B40D07B685B68012B20
:101D3C0007D1474B1B6803F40033002B15D101234B
:101D4C007FE07B685B68022B07D1414B1B6803F07B
:101D5C000073002B09D1012373E03D4B1B6803F08A
:101D6C000203002B01D101236BE0394B5B6823F09C
:101D7C0003027B685B68364913434B60FFF728FA14
:101D8C00F8600AE0FFF724FA0246FB68D31A41F226
:101D9C008832934201D9032353E02D4B5B6803F047
:101DAC000C027B685B689B009A42EBD1274B1B684B
:101DBC0003F007033A689A4210D2244B1B6823F0B5
:101DCC00070222493B6813430B60204B1B6803F04E
:101DDC0007033A689A4201D0012332E07B681B6802
:101DEC0003F00403002B08D0194B5B6823F4E0626A
:101DFC007B68DB68164913434B607B681B6803F0F8
:101E0C000803002B09D0124B5B6823F460527B68EB
:101E1C001B69DB000E4913434B6000F021F80246AE
:101E2C000B4B5B681B0903F00F030A49CB5C22FACE
:101E3C0003F3094A1360094B1B681846FFF786F930
:101E4C00002318461037BD4680BD00BF002002405D
:101E5C0000100240B02700080C00002014000020E5
:101E6C0080B487B000AF0023FB600023BB6000236D
:101E7C007B6100237B6000233B611E4B5B68FB6036
:101E8C00FB6803F00C03042B02D0082B03D027E0D3
:101E9C00194B3B6127E0FB689B0C03F00F03174ABF
:101EAC00D35C7B60FB6803F48033002B10D0114BA8
:101EBC005B685B0C03F00103114AD35CBB607B686D
:101ECC000D4A03FB02F2BB68B2FBF3F37B6104E047
:101EDC007B680C4A02FB03F37B617B693B6102E08C
:101EEC00054B3B6100BF3B6918461C37BD4680BCA7
:101EFC00704700BF0010024000127A00CC27000887
:101F0C00DC27000800093D0080B485B000AF786084
:101F1C000A4B1B680A4AA2FB03235B0A7A6802FB82
:101F2C0003F3FB6000BFFB685A1EFA60002BF9D16B
:101F3C0000BF00BF1437BD4680BC70470C000020AA
:101F4C00D34D621080B582B000AF78607B68002BF7
:101F5C0001D1012341E07B6893F83D30DBB2002BCB
:101F6C0006D17B68002283F83C207868FEF74CFF92
:101F7C007B68022283F83D207B681A687B680433F7
:101F8C001946104600F06EFA7B68012283F8462051
:101F9C007B68012283F83E207B68012283F83F2076
:101FAC007B68012283F840207B68012283F8412062
:101FBC007B68012283F842207B68012283F843204E
:101FCC007B68012283F844207B68012283F845203A
:101FDC007B68012283F83D20002318460837BD4654
:101FEC0080BD000080B485B000AF78607B6893F84A
:101FFC003D30DBB2012B01D0012335E07B6802229E
:10200C0083F83D207B681B68DA687B681B6842F0AC
:10201C000102DA607B681B68164A934209D07B6820
:10202C001B68B3F1804F04D07B681B68124A934243
:10203C0011D17B681B689B6803F00703FB60FB688E
:10204C00062B10D07B681B681A687B681B6842F0F3
:10205C0001021A6007E07B681B681A687B681B68C2
:10206C0042F001021A60002318461437BD4680BCAA
:10207C00704700BF002C01400004004080B582B0C6
:10208C0000AF78607B681B681B6903F00203022BAE
:10209C0022D17B681B68DB6803F00203022B1BD187
:1020AC007B681B686FF002021A617B6801221A7749
:1020BC007B681B689B6903F00303002B03D07868D3
:1020CC0000F0B4F905E0786800F0A7F9786800F042
:1020DC00B6F97B6800221A777B681B681B6903F0D2
:1020EC000403042B22D17B681B68DB6803F0040318
:1020FC00042B1BD17B681B686FF004021A617B6890
:10210C0002221A777B681B689B6903F44073002BCF
:10211C0003D0786800F08AF905E0786800F07DF962
:10212C00786800F08CF97B6800221A777B681B6852
:10213C001B6903F00803082B22D17B681B68DB6842
:10214C0003F00803082B1BD17B681B686FF0080297
:10215C001A617B6804221A777B681B68DB6903F0C1
:10216C000303002B03D0786800F060F905E0786871
:10217C0000F053F9786800F062F97B6800221A7756
:10218C007B681B681B6903F01003102B22D17B6842
:10219C001B68DB6803F01003102B1BD17B681B68DA
:1021AC006FF010021A617B6808221A777B681B6833
:1021BC00DB6903F44073002B03D0786800F036F928
:1021CC0005E0786800F029F9786800F038F97B6848
:1021DC0000221A777B681B681B6903F00103012B33
:1021EC000ED17B681B68DB6803F00103012B07D160
:1021FC007B681B686FF001021A617868FEF7D2FDEC
:10220C007B681B681B6903F08003802B0ED17B68F5
:10221C001B68DB6803F08003802B07D17B681B688D
:10222C006FF080021A61786800F06BFA7B681B68AB
:10223C001B6903F04003402B0ED17B681B68DB68E5
:10224C0003F04003402B07D17B681B686FF0400202
:10225C001A61786800F0FCF87B681B681B6903F056
:10226C002003202B0ED17B681B68DB6803F0200356
:10227C00202B07D17B681B686FF020021A617868ED
:10228C0000F036FA00BF0837BD4680BD80B584B07B
:10229C0000AF786039600023FB737B6893F83C30A7
:1022AC00012B01D10223B4E07B68012283F83C208E
:1022BC007B68022283F83D207B681B689B68BB60AF
:1022CC00BB6823F07703BB60BB6823F47F43BB6020
:1022DC007B681B68BA689A603B681B68B3F5005F43
:1022EC003ED0B3F5005F00F28780B3F5805F00F05D
:1022FC008680B3F5805F7FD8702B1AD0702B7BD87B
:10230C00602B50D0602B77D8502B3CD0502B73D8EF
:10231C00402B58D0402B6FD8302B64D0302B6BD83F
:10232C00202B60D0202B67D8002B5CD0102B5AD0E0
:10233C0062E07B6818683B6899683B685A683B6840
:10234C00DB6800F05EF97B681B689B68BB60BB6850
:10235C0043F07703BB607B681B68BA689A604FE0F8
:10236C007B6818683B6899683B685A683B68DB680F
:10237C0000F047F97B681B689A687B681B6842F41D
:10238C0080429A603CE07B6818683B6859683B68FF
:10239C00DB681A4600F0BEF87B681B6850211846B3
:1023AC0000F015F92CE07B6818683B6859683B68AD
:1023BC00DB681A4600F0DCF87B681B686021184665
:1023CC0000F005F91CE07B6818683B6859683B68AD
:1023DC00DB681A4600F09EF87B681B6840211846A3
:1023EC0000F0F5F80CE07B681A683B681B6819462E
:1023FC00104600F0ECF803E00123FB7300E000BF93
:10240C007B68012283F83D207B68002283F83C2006
:10241C00FB7B18461037BD4680BD80B483B000AF3F
:10242C00786000BF0C37BD4680BC704780B483B069
:10243C0000AF786000BF0C37BD4680BC704780B4DD
:10244C0083B000AF786000BF0C37BD4680BC7047CE
:10245C0080B483B000AF786000BF0C37BD4680BC41
:10246C007047000080B485B000AF786039607B683D
:10247C001B68FB607B68254A934207D07B68B3F1ED
:10248C00804F03D07B68224A934208D1FB6823F02B
:10249C007003FB603B685B68FA681343FB607B6806
:1024AC001A4A934207D07B68B3F1804F03D07B6804
:1024BC00174A934208D1FB6823F44073FB603B68D6
:1024CC00DB68FA681343FB60FB6823F080023B680F
:1024DC005B691343FB607B68FA681A603B689A6817
:1024EC007B68DA623B681A687B689A627B68074A89
:1024FC00934203D13B681A697B681A637B6801229B
:10250C005A6100BF1437BD4680BC7047002C014097
:10251C000004004080B487B000AFF860B9607A6006
:10252C00FB681B6A7B61FB681B6A23F00102FB687A
:10253C001A62FB689B693B613B6923F0F0033B61CA
:10254C007B681B013A6913433B617B6923F00A03E7
:10255C007B617A69BB6813437B61FB683A699A615A
:10256C00FB687A691A6200BF1C37BD4680BC704795
:10257C0080B487B000AFF860B9607A60FB681B6A02
:10258C007B61FB681B6A23F01002FB681A62FB6814
:10259C009B693B613B6923F470433B617B681B0384
:1025AC003A6913433B617B6923F0A0037B61BB68F1
:1025BC001B017A6913437B61FB683A699A61FB687A
:1025CC007A691A6200BF1C37BD4680BC704780B464
:1025DC0085B000AF786039607B689B68FB60FB68F6
:1025EC0023F07003FB603A68FB68134343F0070366
:1025FC00FB607B68FA689A6000BF1437BD4680BCEC
:10260C00704780B487B000AFF860B9607A603B6007
:10261C00FB689B687B617B6923F47F437B613B6830
:10262C001A027B681A43BB6813437A6913437B61B4
:10263C00FB687A699A6000BF1C37BD4680BC704746
:10264C0080B485B000AF786039607B6893F83C301B
:10265C00012B01D1022341E07B68012283F83C204D
:10266C007B68022283F83D207B681B685B68FB60FB
:10267C007B681B689B68BB60FB6823F07003FB6086
:10268C003B681B68FA681343FB607B681B68FA683D
:10269C005A607B681B68144A934209D07B681B689C
:1026AC00B3F1804F04D07B681B68104A93420CD165
:1026BC00BB6823F08003BB603B685B68BA6813435C
:1026CC00BB607B681B68BA689A607B68012283F8E0
:1026DC003D207B68002283F83C20002318461437E9
:1026EC00BD4680BC704700BF002C01400004004078
:1026FC0080B483B000AF786000BF0C37BD4680BC9F
:10270C00704780B483B000AF786000BF0C37BD4613
:10271C0080BC704770B500260C4D0D4C641BA4108A
:10272C00A64209D100F022F800260A4D0A4C641B7F
:10273C00A410A64205D170BD55F8043B984701364C
:10274C00EEE755F8043B98470136F2E7E02700081E
:10275C00E0270008E0270008E427000803460244AD
:10276C00934200D1704703F8011BF9E7F8B500BF9D
:10277C00F8BC08BC9E467047F8B500BFF8BC08BC56
:04278C009E467047AE
:1027900000200010000800000100020004000800F2
:1027A00000400000014F12064C24200F00040000DE
:1027B00000000000000000000102030406070809F1
:1027C000400080000001000200040008020304052C
:1027D000060708090A0B0C0D0E0F1010010200006D
:0427E00031010008BB
:0427E4000D010008DB
:1027E800000C0140000C0140000C01400024F400E2
:0C27F8000008014010000000010000007B
:04000005080010E1FE
:00000001FF
